:0A0000000C9435000C9400000C94E1
:10000A0000000C9400000C9400000C9400000C9466
:10001A0000000C9400000C9400000C9400000C9456
:10002A0000000C9400000C9400000C9400000C9446
:10003A0000000C9400000C9400000C9400000C9436
:10004A0000000C9400000C9400000307010000005B
:10005A000014030060025400040063025800000008
:10006A00F894EE27ECBBF1E0F5BFE5BF8DE0A2E026
:10007A00BB27ED938A95E9F780E098E0A0E6ED9337
:10008A000197E9F7ECE5F0E085919591009761F029
:10009A00A591B59105901590BF01F00105900D92BB
:1000AA000197E1F7FB01F0CFEFE5EDBFE8E0EEBF26
:1000BA00C0E6D2E00C946100DCD0A3E6B2E007D13E
:1000CA00E13039F4A0E6B2E0F7D0A4E1B0E076D1AD
:1000DA00F4CFA0E6B2E0E2D0F0CFFFCF53D10A2F9F
:1000EA003C812D8110E0383008F056C0003051F5BF
:1000FA00E22FF0E0309731F412D1E095E121E0935C
:10010A003B001FC0E130A0E0FA0731F40ED1E095C0
:10011A00E121E093380015C0E230A0E0FA0731F49B
:10012A000AD1E095E121E09335000BC0E330A0E06D
:10013A00FA0731F406D1E095E121E093320001C0DB
:10014A0011E029C0013031F5E22FF0E0309729F4AF
:10015A00E6D0E129E0933B001CC0E130A0E0FA07B9
:10016A0029F4E3D0E129E093380013C0E230A0E09B
:10017A00FA0729F4E0D0E129E09335000AC0E33018
:10018A00A0E0FA0729F4DDD0E129E093320001C0AA
:10019A0011E001C011E001C011E0E12FFAD026966A
:1001AA000895F0D00A2F3C8110E0083050F5E32F73
:1001BA00F0E0309731F410903B00C9D0E0933B0057
:1001CA001FC0E130A0E0FA0731F410903800BFD028
:1001DA00E093380015C0E230A0E0FA0731F410903D
:1001EA003500B5D0E09335000BC0E330A0E0FA0744
:1001FA0031F410903200ABD0E093320001C011E02C
:10020A0001C011E0E12FC5D025960895B9D09D010E
:10021A000E815F8110E000240216030611F00830F7
:10022A0008F022C0E52FF0E0309721F4A0913900C0
:10023A0093D019C0E130A0E0FA0721F4A09136006A
:10024A008BD011C0E230A0E0FA0721F4A09133006C
:10025A0083D009C0E330A0E0FA0721F4A09130006E
:10026A007BD001C011E001C011E0E12F90D02896A7
:10027A000895E0E0E0933A00E0933700E093340019
:10028A00E0E8E0933100E1E0E0933B00E0E0E09356
:10029A003800E0933500E093320008951A930A93E8
:1002AA008D01F801A281A13019F45CD0A0E002C04E
:1002BA0059D0A1E013DF08C01A930A938D01EC917B
:1002CA00EA93F801A1816DDF0991199108955AD035
:1002DA009D01F901E281E03079F44BD0A1E0FEDE24
:1002EA0048D0ADB7BEB70F9391DF0F91003011F42C
:1002FA0011E001C010E00AC03CD0A0E0EFDE39D026
:10030A00ADB7BEB70F9382DF0F91102FF901E381CA
:10031A00F0E0DF0153D0E12F3CD0249608951090ED
:10032A003B00E32FA1E03AD0089510903800E32F64
:10033A00A1E034D0089510903500E32FA1E02ED02B
:10034A00089510903200E32FA1E028D00895E02FFD
:10035A00A1E024D0E1250895E02F28D0E170D90149
:10036A00EC930895D801EC91EA93F801A181AA933C
:10037A000895D901EC91EA93F901A181AA9308950C
:10038A005A934A933A932A931A930A9308955D814A
:10039A004C813B812A81198108810895EE230E2E12
:1003AA00EA2F19F0EE0F0A94E9F70895EE230E2EBC
:1003BA00EA2F19F0E6950A94E9F70895109639F0AC
:1003CA00A89580EA9FE00197F1F71197C9F7089578
:00000001FF
