:0A0000000C9435000C9400000C94E1
:10000A0000000C9400000C9400000C9400000C9466
:10001A0000000C9400000C9400000C9400000C9456
:10002A0000000C9400000C9400000C9400000C9446
:10003A0000000C9400000C9400000C9400000C9436
:10004A0000000C9400000C94000000000100000164
:10005A000014030060025400040063025800000008
:10006A00F894EE27ECBBF1E0F5BFE5BF8DE0A2E026
:10007A00BB27ED938A95E9F780E098E0A0E6ED9337
:10008A000197E9F7ECE5F0E085919591009761F029
:10009A00A591B59105901590BF01F00105900D92BB
:1000AA000197E1F7FB01F0CFEFE5EDBFE8E0EEBF26
:1000BA00C0E6D2E00C94820165D10A2F3C812D81E1
:1000CA0010E0383008F056C0003051F5E22FF0E069
:1000DA00309731F424D1E095E121E0933B001FC031
:1000EA00E130A0E0FA0731F420D1E095E121E09374
:1000FA00380015C0E230A0E0FA0731F41CD1E095CF
:10010A00E121E09335000BC0E330A0E0FA0731F4B7
:10011A0018D1E095E121E093320001C011E029C035
:10012A00013031F5E22FF0E0309729F4F8D0E129D7
:10013A00E0933B001CC0E130A0E0FA0729F4F5D0B7
:10014A00E129E093380013C0E230A0E0FA0729F46D
:10015A00F2D0E129E09335000AC0E330A0E0FA07C3
:10016A0029F4EFD0E129E093320001C011E001C087
:10017A0011E001C011E0E12F0CD12696089502D1B9
:10018A000A2F3C8110E0083050F5E32FF0E0309759
:10019A0031F410903B00DBD0E0933B001FC0E1300C
:1001AA00A0E0FA0731F410903800D1D0E09338007B
:1001BA0015C0E230A0E0FA0731F410903500C7D03C
:1001CA00E09335000BC0E330A0E0FA0731F4109059
:1001DA003200BDD0E093320001C011E001C011E04D
:1001EA00E12FD7D025960895CBD09D010E815F814E
:1001FA0010E000240216030611F0083008F022C0AD
:10020A00E52FF0E0309721F4A0913900A5D019C06C
:10021A00E130A0E0FA0721F4A09136009DD011C088
:10022A00E230A0E0FA0721F4A091330095D009C08A
:10023A00E330A0E0FA0721F4A09130008DD001C08C
:10024A0011E001C011E0E12FA2D028960895E1E063
:10025A00E0933A00E0E0E0933700E0933400E09363
:10026A003100E2E0E0933B00E0E0E0933800E09305
:10027A003500E093320008951A930A938D01F8012C
:10028A00A281A13019F46ED0A0E002C06BD0A1E027
:10029A0013DF08C01A930A938D01EC91EA93F801CF
:1002AA00A1816DDF0991199108956CD09D01F90121
:1002BA00E281E03079F45DD0A1E0FEDE5AD0ADB73C
:1002CA00BEB70F9391DF0F91003011F411E001C016
:1002DA0010E00AC04ED0A0E0EFDE4BD0ADB7BEB7FB
:1002EA000F9382DF0F91102FF901E381F0E0DF0114
:1002FA0065D0E12F4ED024960895A9DFA3E6B2E097
:10030A00D4DFE13039F4A0E6B2E0C4DFA8EEB3E00E
:10031A0055D0F4CFA0E6B2E0AFDFF0CFFFCF109018
:10032A003B00E32FA1E03AD0089510903800E32F64
:10033A00A1E034D0089510903500E32FA1E02ED02B
:10034A00089510903200E32FA1E028D00895E02FFD
:10035A00A1E024D0E1250895E02F28D0E170D90149
:10036A00EC930895D801EC91EA93F801A181AA933C
:10037A000895D901EC91EA93F901A181AA9308950C
:10038A005A934A933A932A931A930A9308955D814A
:10039A004C813B812A81198108810895EE230E2E12
:1003AA00EA2F19F0EE0F0A94E9F70895EE230E2EBC
:1003BA00EA2F19F0E6950A94E9F70895109639F0AC
:1003CA00A89580ED97E00197F1F71197C9F708957D
:00000001FF
